:020000040800F2
:10000000B819002021020008B31A0008F3180008EC
:10001000B11A0008970400085121000800000000F0
:10002000000000000000000000000000890100083E
:10003000D504000800000000CD010008591C00088C
:100040003B0200083B0200083B0200083B0200089C
:100050003B0200083B0200083B0200083B0200088C
:100060003B0200083B0200083B0200083B0200087C
:100070003B0200083B0200083B0200083B0200086C
:100080003B0200083B0200083B0200083B0200085C
:100090003B0200083B0200083B0200083B0200084C
:1000A0003B0200083B0200083B0200083B0200083C
:1000B0003B0200083B020008E51C00083B02000868
:1000C0003B0200083B0200083B0200083B0200081C
:1000D0003B0200083B020008452100083B020008E3
:1000E0003B0200083B0200083B02000800F002F857
:1000F00000F03AF80AA090E8000C82448344AAF188
:100100000107DA4501D100F02FF8AFF2090EBAE885
:100110000F0013F0010F18BFFB1A43F0010318473B
:100120009C3C0000BC3C0000103A24BF78C878C159
:10013000FAD8520724BF30C830C144BF04680C60ED
:10014000704700000023002400250026103A28BF35
:1001500078C1FBD8520728BF30C148BF0B60704739
:100160001FB51FBD10B510BD00F05BF91146FFF7BC
:10017000F7FF01F0FFFF00F079F903B4FFF7F2FF9A
:1001800003BC00F081F90000224B19680868B0E850
:10019000F00F80F30988BFF36F8F4FF0000080F3FA
:1001A00011884EF00D0E70470000000006480068F0
:1001B000006880F3088862B661B6BFF34F8FBFF363
:1001C0006F8F00DF00BF00BF08ED00E0EFF3098094
:1001D000BFF36F8F0F4B1A6820E9F00F106008B55E
:1001E0004FF0500080F31188BFF34F8FBFF36F8F34
:1001F00002F066FF4FF0000080F31188BDE8084070
:1002000019680868B0E8F00F80F30988BFF36F8FB2
:10021000704700BF2C000020EFF3058070470000FE
:100220000948804709480047FEE7FEE7FEE7FEE78A
:10023000FEE7FEE7FEE7FEE7FEE7FEE704480549C6
:10024000054A064B70470000E31C0008ED0000085B
:10025000B8130020B8190020B8150020B8150020E8
:10026000032A40F2308010F0030C00F0158011F8E2
:10027000013BBCF1020F624498BF11F801CB00F8BA
:10028000013B38BF11F8013BA2F1040298BF00F80E
:1002900001CB38BF00F8013B11F0030300F02580CB
:1002A000083AC0F0088051F8043B083A51F804CBF2
:1002B000A0E80810F5E7121D5CBF51F8043B40F8B8
:1002C000043BAFF30080D20724BF11F8013B11F8C3
:1002D00001CB48BF11F8012B24BF00F8013B00F807
:1002E00001CB48BF00F8012B704710B5203AC0F091
:1002F0000B80B1E81850203AA0E81850B1E8185027
:10030000A0E81850BFF4F5AF5FEA027C24BFB1E863
:100310001850A0E8185044BF18C918C0BDE81040D4
:100320005FEA827C24BF51F8043B40F8043B08BFDD
:100330007047D20728BF31F8023B48BF11F8012BA4
:1003400028BF20F8023B48BF00F8012B70474FF050
:10035000000200B5134694469646203922BFA0E815
:100360000C50A0E80C50B1F12001BFF4F7AF090721
:1003700028BFA0E80C5048BF0CC05DF804EB890012
:1003800028BF40F8042B08BF704748BF20F8022B55
:1003900011F0804F18BF00F8012B70474FF0013C5F
:1003A00050F8042B51F8043B9A4221D1A2EB0C03E4
:1003B000934313EACC1317D150F8042B51F8043BA4
:1003C0009A4215D1A2EB0C03934313EACC130BD141
:1003D00050F8042B51F8043B9A4209D1A2EB0C03CC
:1003E000934313EACC13DBD04FF00000704700BFFB
:1003F000D01A01BAB1FA81F101F0180122FA01F024
:10040000CB40C1F12001DBB2C0B2C01A2CFA01F31B
:10041000D11A914311EAC311E6D170477047704772
:100420007047754600F02CF8AE4605006946534605
:1004300020F00700854618B020B5FFF7FFFEBDE8A5
:1004400020404FF000064FF000074FF000084FF03B
:10045000000B21F00701AC46ACE8C009ACE8C009CC
:10046000ACE8C009ACE8C0098D46704710B5044639
:10047000AFF300802046BDE81040FFF77EBE0000CD
:10048000004870475413002001491820ABBEFEE716
:10049000260002007047FEE70D4A01280FD002280F
:1004A00004D0121D03280AD0042807D1106820F4B4
:1004B000E0401060106840EA01301060704710683A
:1004C00020F070001060106840EA0110F5E70000AD
:1004D000182C014070470000194C002002F08AFDE2
:1004E000206818A10830FFF759FFC0B1206816A195
:1004F0000830FFF753FFA0B1206815A10830FFF7BF
:100500004DFF80B1206814A10830FFF747FF60B1AC
:10051000206813A10830FFF741FF40B10BE0012133
:1005200006E0022104E0042102E0082100E010219D
:10053000606902F001FE012001F07CFECDE70000C1
:100540000000002075700000646F776E00000000EE
:100550006C65667400000000726967680000000046
:1005600073746F700000000010B590F82110002225
:10057000022905D00421816380F82020012010BDCC
:1005800001680B6823F00E030B6001680B6823F011
:1005900001030B6090F84030C46B012101FA03F3B2
:1005A000636080F8211080F82020104610BD000004
:1005B00010B590F821100024022903D00421816392
:1005C00001243DE001680A6822F00E020A60016819
:1005D0000A6822F001020A601A4A0168914201D1B8
:1005E000012121E0174A1432914201D110211BE070
:1005F000144A2832914201D1891515E0114A3C3242
:10060000914201D189140FE00E4A5032914202D139
:100610004FF4803108E00B4A6432914202D14FF42A
:10062000801101E04FF08071064A083A51600121C3
:1006300080F82110002180F82010416B01B188471B
:10064000204610BD080002402DE9F84FDFF8B891B0
:100650000024A9F1040B23460F2709F1040AABF18A
:10066000040EC9E00125A5402A40AA427DD1674E6B
:10067000D1F804C0ACEB0608B44532D014DCBCF1B0
:10068000030F3AD009DCBCF1000F2AD0BCF1010FF6
:100690001CD0BCF1020F31D11DE0BCF1110F17D0FD
:1006A000BCF1120F2AD119E0B8F5881F19D006DC69
:1006B000B8F5803F15D0B8F5801F1FD111E0B8F50F
:1006C000001F0ED0B8F5041F18D10AE0CB6815E062
:1006D000CB681B1D12E0CB6808330FE0CB680C33EE
:1006E0000CE08B682BB1012B4FF0080303D0456160
:1006F00004E0042302E0056100E00023FF2A01D8A2
:10070000064601E000F104064FEA840501D9A5F18F
:100710002005D6F8008007FA05FC28EA0C0803FA41
:1007200005F548EA0508C6F800804D68ED0062D579
:10073000374DAE6946F00106AE61AD6924F003069F
:1007400005F001050095334D06EB050CDCF808506B
:10075000A607360F07FA06F825EA0805DFF8B8807D
:10076000404503D14FF0000817E044E0DFF8AC80CB
:10077000404502D14FF001080FE0DFF8A48040456A
:1007800002D14FF0020808E0DFF89880404502D11E
:100790004FF0030801E04FF0040808FA06F848EAB1
:1007A0000508CCF808804D68D9F80060ED024D4688
:1007B00001D5164300E096432E604D68DAF80060DC
:1007C000AD02554601D5164300E096432E604D68B4
:1007D000DBF80060AD035D4601D5164300E09643AB
:1007E0002E604D68DEF80060ED03754601D51643B6
:1007F00000E096432E60641C0D682A46E5407FF4B5
:1008000031AFBDE8F88F000008040140000011106E
:10081000001002400000014000080140000C0140AF
:1008200000100140001401400AB101617047090441
:10083000FBE7000001488068704700001C000020B2
:100840000248816802781144816070471C000020D2
:10085000074810B5016841F010010160032000F065
:10086000A7F80F2000F006F800F050F8002010BDA7
:100870000020024030B505461F4887B0C16941F0ED
:100880000401C161C06906A900F00400009001A83C
:1008900000F036F90498B0B100F052F94000174961
:1008A000174AB0FBF1F11748491E0260416040F25F
:1008B000E7320021C0E903218160816100F076FB0D
:1008C000040003D015E000F03BF9E8E70D4800F024
:1008D000AFFB04000DD11E2000F03CF8102D07D214
:1008E000002229461E2000F043F80748056000E07A
:1008F000012407B0204630BD0010024040420F00E6
:1009000000080040F4040020200000200F4808B533
:10091000816941F001018161816901F0010100916A
:10092000C16941F08051C161C069002200F080506E
:1009300000900F21901E00F01BF80548416821F03F
:10094000E06141F00071416008BD0000001002400C
:1009500000000140002809DB00F01F020121914046
:100960004009800000F1E020C0F80011704700004D
:10097000F0B40E4B1B680C46C3F30223C3F107050A
:10098000042D00D90425191D072901D2002300E0F8
:10099000DB1E012606FA05F1491E214099409E40C2
:1009A000761E16403143F0BC01F0D3BB0CED00E0E5
:1009B000064900F0070208684FF6FF03184040EAB6
:1009C0000220034A10430860704700000CED00E06D
:1009D0000000FA052DE9F0470F46050061D0434EAF
:1009E000306800F00700B84209D2306820F00700F4
:1009F00038433060306800F00700B84251D12868B1
:100A00003B4C810712D5400703D5606840F4E06095
:100A100060602878000703D5606840F4605060602B
:100A20006068A96820F0F000084360602878C0077B
:100A300028D06868012810D02168022810D08907C2
:100A400000292EDA616821F0030101436160FFF79C
:100A5000F1FE804641F288390DE021688903EFE715
:100A60008901EDE7FFF7E6FEA0EB0801494502D951
:100A70000320BDE8F0876068696800F00C00B0EB07
:100A8000810FEFD1306800F00700B8420BD9306811
:100A900020F0070038433060306800F00700B842AB
:100AA00001D00120E5E72878400705D56068E968AE
:100AB00020F4E060084360602878000706D560688D
:100AC000296920F4605040EAC100606000F058F8E5
:100AD0006168084AC1F30311515CC84006490860C7
:100AE00006480068FFF7C6FE0020C2E7002002406B
:100AF000001002406E3D0008280000202000002069
:100B00000F2202600C4A536803F0030343605368EA
:100B100003F0F0038360536803F4E063C36052683A
:100B20004FF4E06303EAD20202610448006800F077
:100B300007000860704700000010024000200240DB
:100B40000448054900684968044AC1F30221515C20
:100B5000C840704728000020001002407E3D000879
:100B60000448054900684968044AC1F3C221515C40
:100B7000C840704728000020001002407E3D000859
:100B80000E4A51680E4801F00C03042B11D0082BBB
:100B90000FD10C48C1F38343C903C05C0AD5516827
:100BA000084AC1F34041921E515C054A5043B0FBD4
:100BB000F1F07047044948437047000000100240BC
:100BC00000127A005E3D000800093D002DE9F84F53
:100BD000040070D02078C04DC00749D06868C0F3C9
:100BE0008100012807D06868C0F38100022809D17C
:100BF0006868C00306D52868800339D56068002876
:100C0000E7D035E06068B0F5803F0BD010B1B0F5AB
:100C1000A02F11D0286820F480302860286820F4A4
:100C2000802002E0286840F480302860606890B13D
:100C3000FFF700FE06460AE0286840F4802028609E
:100C4000F0E700BFFFF7F6FD801B642873D8286823
:100C50008003F7D50CE0FFF7EDFD064605E000BF89
:100C6000FFF7E8FD801B6428F0D828688003F7D4DC
:100C700020789A4E80074FF001094FF0000839D5CF
:100C8000686810F00C0F07D06868C0F38100022874
:100C900009D16868C00306D42868800714D5206984
:100CA000012808D110E02069B0B1C6F80090FFF724
:100CB000C1FD074605E00AE1FFF7BCFDC01B0228A5
:100CC000C4D828688007F7D52868616920F0F80043
:100CD00040EAC10028600DE0C6F80080FFF7AAFDD9
:100CE000074604E0FFF7A6FDC01B022823D82868AA
:100CF0008007F7D4207800072CD57948A169D9B1AD
:100D0000C0F80090FFF796FD074604E0FFF792FD5C
:100D1000C01B02280FD8686A8007F7D571484FF4C6
:100D2000FA510068B0FBF1F0009000BF0098411E3E
:100D30000091FAD20EE080E0C0F80080FFF77AFD63
:100D4000074604E0FFF776FDC01B022875D8686AE5
:100D50008007F7D42078400760D5E8690027C000F5
:100D600008D4E86940F08050E861E869012700F0A4
:100D7000805000905C480168C90513D4016883461F
:100D800041F480710160FFF755FD824606E000BF27
:100D9000FFF750FDA0EB0A0064284ED8DBF80000F6
:100DA000C005F5D5E06801280AD008B1052813D0A0
:100DB000286A20F001002862286A20F0040002E07E
:100DC000286A40F001002862E06841F2883B98B14F
:100DD000FFF730FD82460BE0286A40F004002862ED
:100DE000EEE700BFFFF726FDA0EB0A0159455AD8F0
:100DF000286A8007F6D50CE0FFF71CFD824605E067
:100E0000FFF718FDA0EB0A0159454CD8286A800766
:100E1000F6D41FB1E86920F08050E861E06988B33A
:100E20006968C1F38101022944D00228C6F86080B4
:100E300004D0FFF7FFFC044638E034E0FFF7FAFC8B
:100E4000074604E0FFF7F6FCC01B02282BD82868F1
:100E50008001F7D4206AB0F5803F05D16868A168A9
:100E600020F4003008436860D4E908010843696849
:100E700021F4741108436860C6F86090FFF7DAFC4B
:100E8000044606E025E000BFFFF7D4FC001B022863
:100E900009D828688001F7D51BE000BFFFF7CAFC1E
:100EA000001B022802D90320BDE8F88F28688001C2
:100EB000F4D40EE00128F7D06868226A00F480318B
:100EC000914204D1616A00F47010884201D001207F
:100ED000EAE70020E8E7000000100240000042427C
:100EE0008004424228000020007000407047704794
:100EF00010B590F83C20012A22D0012280F83C2035
:100F0000CA688C6822F4407222434C6822F48062E2
:100F100022430C6822F4006222430C6922F48052BE
:100F200022434C6922F400522243C969002322F46F
:100F300080420A4301684A6480F83C30002010BDBA
:100F4000022010BD70B590F83C20012A26D0012463
:100F500080F83C40022280F83D2003685A689D6872
:100F600022F070060A6832435A600D4B02689A42BA
:100F700008D0B2F1804F05D00A4B9A4202D00A4BFA
:100F80009A4204D1496825F080031943916080F8A2
:100F90003D40002180F83C10084670BD022070BD25
:100FA000002C0140000400400008004010B504007F
:100FB00003D094F83D0010B107E0012010BD0020DF
:100FC00084F83C00204600F01FF8022084F83D0021
:100FD000211D206800F08CFE012084F8460084F872
:100FE0003E0084F83F0084F8400084F8410084F813
:100FF000420084F8430084F8440084F8450084F8F3
:101000003D00002010BD000008B500680649884278
:1010100008D10648816941F400618161806900F46A
:101020000060009008BD0000002C0140001002404C
:1010300090F83D10012901D001207047022180F86D
:101040003D100168CA6842F00102CA6000680B499D
:10105000884208D0B0F1804F05D00949884202D0BB
:101060000849884204D1816801F00701062903D0AC
:10107000016841F00101016000207047002C01402F
:10108000000400400008004070B5044690F83C00A1
:101090000025012817D0012684F83C60022084F83E
:1010A0003D002068826822F0770222F47F4282604D
:1010B0000868502838D00DDC20284FD005DC90B3CC
:1010C000102811D14AE0022070BD302846D04028B7
:1010D0000AD13BE060282FD070280DD0B0F5805F9A
:1010E00003D0B0F5005F12D0012584F83D600020E8
:1010F00084F83C00284670BDCB68D1E90121206806
:1011000000F03FFE2068816841F0770109E0CB687C
:10111000D1E90121206800F034FE2068816841F4A3
:1011200080418160E1E719E0CA684968206800F001
:10113000DDFE5021206806E0CA684968206800F09A
:10114000E6FE6021206800F026FECEE7CA68496806
:10115000206800F0CBFE40212068F4E722680146B9
:101160001046F0E770472DE9F04104460068C66874
:1011700005694FF00007A90713D5B10711D5F91E6E
:10118000016101202077206880698007204602D015
:10119000FFF7E8FF04E000F0A5F8204600F037F97B
:1011A0002777680716D5700714D521686FF00400FB
:1011B0000861022020772068806910F4407F204673
:1011C00002D0FFF7CFFF04E000F08CF8204600F0DB
:1011D0001EF92777280715D5300713D521686FF03A
:1011E00008000861042020772068C0698007204635
:1011F00002D0FFF7B7FF04E000F074F8204600F0DB
:1012000006F92777E80616D5F00614D521686FF0A1
:1012100010000861082020772068C06910F4407F22
:10122000204602D0FFF79EFF04E000F05BF8204666
:1012300000F0EDF82777E80708D0F00706D021681E
:101240006FF001000861204600F068F9280608D513
:10125000300606D521686FF0800008612046FFF750
:1012600045FE680608D5700606D521686FF0400077
:101270000861204600F05CF9A8060AD5B00608D53A
:1012800021686FF0200008612046BDE8F041FFF7BB
:101290002EBEBDE8F081000000B585B000210091B0
:1012A00001910291039100680B49884212D10B48C9
:1012B000816941F0040181618069694600F00400A0
:1012C00004904FF470600090022001900390044855
:1012D000FFF7BAF905B000BD002C01400010024034
:1012E00000080140704770B5044690F83C000026A5
:1012F0000D4601280FD0012084F83C006AB1042A71
:101300001DD0082A2FD00C2A3FD00126002084F8B7
:101310003C00304670BD022070BD206800F044FDE6
:101320002068816941F0080181612068816921F0AC
:1013300004018161206881692A69114311E02068F4
:1013400000F05AFD2068816941F4006181612068E4
:10135000816921F480618161206881692A6941EA9B
:1013600002218161D2E7206800F072FD2068C16926
:1013700041F00801C1612068C16921F00401C16127
:101380002068C1692A69114311E0206800F08CFDD2
:101390002068C16941F40061C1612068C16921F41C
:1013A0008061C1612068C1692A6941EA0221C16185
:1013B000ACE710B5040003D094F83D0010B107E08D
:1013C000012010BD002084F83C00204600F01EF8EB
:1013D000022084F83D00211D206800F089FC0120D6
:1013E00084F8460084F83E0084F83F0084F840000A
:1013F00084F8410084F8420084F8430084F84400F3
:1014000084F8450084F83D00002010BD7047704707
:1014100010B50446022249B104290ED0082913D080
:1014200094F84100012816D0012010BD94F83E0028
:101430000128F9D184F83E200FE094F83F000128FC
:10144000F2D184F83F2008E094F840000128EBD165
:1014500084F8402001E084F841200122206800F057
:1014600083FC0F492068884203D1426C42F4004259
:1014700042642068884208D0B0F1804F05D0094905
:10148000884202D00849884204D1816801F00701EE
:10149000062903D0016841F001010160002010BD60
:1014A000002C0140000400400008004030B5044614
:1014B0000D460068002200F057FC174B41F2111155
:1014C00020688A10984209D1036A0B4206D1036A48
:1014D000134203D1436C23F4004343642068036A3E
:1014E0000B4206D1016A114203D1016821F00101CA
:1014F000016001203DB1042D08D0082D09D084F8E9
:101500004100002030BD84F83E00FAE784F83F0037
:10151000F7E784F84000F4E7002C01400068034935
:10152000884201D1FFF78CB97047000000080040E5
:101530007047704770470000F8B5016804460868B6
:10154000CA684B6910F00F0F4FF0000559D003F037
:10155000010602F49077374365D0C10705D0D10565
:1015600003D5616C41F001016164410705D5D907DC
:1015700003D0616C41F002016164810705D5D90790
:1015800003D0616C41F004016164010707D502F0EA
:101590002001314303D0616C41F008016164616C4A
:1015A00000293AD0800604D5900602D5204600F0E6
:1015B000EFFC20684069616CC0F38010090700D41B
:1015C00060B3204600F0BDFC20684069400621D58C
:1015D0002068143050E8001F21F0400140E800125C
:1015E000002AF5D1E06BA8B16D494163E06BFEF7CD
:1015F000DFFF002811D0E06B416B01B0BDE8F04087
:10160000084783060FD593060DD52046BDE8F84060
:1016100000F0BEBC2046FFF78DFFF8BD2046FFF767
:1016200089FF6564F8BD266B2023012E7CD1C60698
:101630007AD5D60678D508684868009048694FF092
:101640000206400640D5E16B086840680004000CC3
:10165000E8D0A28D8242E5D9E085886920282DD086
:1016600020680C3050E8001F21F4807140E800121F
:10167000002AF5D12068143050E8001F21F0010144
:1016800040E80012002AF5D12068143050E8001F0D
:1016900021F0400140E80012002AF5D184F84230E0
:1016A000256320680C3050E8001F21F0100140E84D
:1016B0000012002AF5D1E06BFEF756FF6663A08D9D
:1016C000E18D401A81B22AE0A08DE18D401A81B2ED
:1016D000E08D0028A6D00029A4D022680C3252E860
:1016E000000F20F4907042E80007002FF5D1206829
:1016F000143050E8002F22F0010240E80027002FAC
:10170000F5D184F84230256320680C3050E8002F72
:1017100022F0100240E80023002BF5D1666320463A
:10172000FFF707FFF8BDFFE705062BD5150629D5FE
:1017300094F841002128F5D1A068B0F5805F01D16F
:101740002069B0B1206A411C21622168007848609C
:10175000E08C401E0004000CE084E3D12068C168E6
:1017600021F08001C1602068C16841F04001C16082
:10177000D8E7206A0088C0F308004860206A801C0F
:101780002062E5E74006CDD55006CBD5CA68204695
:1017900022F04002CA6084F8413000F0A9F8C1E7A5
:1017A000331F000870B5040004D094F841000025F0
:1017B00010B106E0012070BD84F84050204600F0D2
:1017C00023F8242084F841002068C16821F40051E6
:1017D000C160204600F03EFC2068016921F4904180
:1017E00001612068416921F02A0141612068C168D6
:1017F00041F40051C1606564202084F8410084F800
:1018000042006563002070BD30B585B000240094AF
:101810000194029403940068184988422BD1184817
:10182000C16941F40031C161C16901F40031049121
:10183000816941F0040181618069124D00F004006A
:101840000490042000900220019003200390694638
:101850002846FEF7F9FE0820CDE90004694628462F
:101860000294FEF7F1FE002205212620FFF780F802
:101870002620FFF76FF805B030BD0000004400409F
:10188000001002400008014090F84230202B01D0A7
:101890000220704721B11AB10023036300F036BC67
:1018A0000120704710B500680D49884210D10D48DD
:1018B0000168097801290BD1006902F073F938B188
:1018C00009494FF080500860BFF34F8FBFF36F8F0F
:1018D0000649BDE81040142201F15C00FFF7D4BFB7
:1018E000004400400000002004ED00E0A8000020BB
:1018F0007047FEE72DE9F04786B000262B4800969A
:10190000019602960396816941F020018161816907
:1019100001F020010491816941F004018161816934
:1019200001F004010491816941F00801816180693D
:10193000DFF87C9000F00800049000221121484656
:10194000FEF772FFDFF86CA000223B215046FEF745
:101950006BFF4FF48058012241464846FEF764FF72
:10196000032511200124022703958DE89100694683
:101970004846FEF769FE01AA009582E8D000694654
:101980005046FEF761FECDE9008469464846CDE940
:101990000245FEF759FE382003958DE8910069460F
:1019A0005046FEF751FE06B0BDE8F0870010024039
:1019B00000080140000C014010B596B000240F94BF
:1019C00010941194129413941C2168461494FEF7F9
:1019D000BEFC202107A8FEF7BAFC3448324901605A
:1019E0004721C0E901146321C0E903144461846103
:1019F000FFF7DCFA08B172B6FEE74FF480500F90A3
:101A00000FA92A48FFF740FB08B172B6FEE7274846
:101A1000FFF7CFFC08B172B6FEE7139413A9234871
:101A20001494FFF78FFA08B172B6FEE76020CDE993
:101A300000040294039404940594002269461B4810
:101A40000694FFF750FC08B172B6FEE7042269461F
:101A50001648FFF748FC08B172B6FEE7082269464F
:101A60001248FFF740FC08B172B6FEE70C22694647
:101A70000E48FFF738FC08B172B6FEE707940894E9
:101A800009944FF400500A94CDE90B4007A9074888
:101A90000E94FFF72DFA08B172B6FEE70348FFF780
:101AA000FBFB16B010BD0000002C0140BC00002064
:101AB000FEE7FEE70A4C0B4E4FF4805520680269A2
:101AC00012B1012A02D006E0012200E000222946DC
:101AD0003046FEF7A9FE012000F0ACFBEEE7000067
:101AE00000000020000801400B4C206840F001007D
:101AF0002060206820F0020020604B2000F09AFB5C
:101B0000206820F001002060206840F00200206082
:101B10004B2000F08FFBE8E70C0C014008B501F00A
:101B2000FDFA4A4C4A4D4A4E4FF0FF37A5F10408E2
:101B3000083605F104094FF05F0A60610097002341
:101B400001221F21606901F03DFBA061C1071AD08D
:101B500006210220FEF7A0FC06210420FEF79CFCD3
:101B60002068416829604068306004213948FFF7E7
:101B70004FFC0C213748FFF74BFC00213548FFF79D
:101B800095FC08215BE081071CD506210120FEF7AA
:101B900083FC06210320FEF77FFC20684268C8F81A
:101BA00000204168C9F8001000212A48FFF730FCE6
:101BB00004212848FFF77AFC0C212648FFF776FC21
:101BC000082129E0410714D506210220FEF764FC14
:101BD00007210120FEF760FCC8F800A0C5F800A0AE
:101BE00004211C48FFF714FC00211A48FFF710FCE1
:101BF00020E0010714D507210320FEF74DFC062144
:101C00000420FEF749FCC9F800A0C6F800A008218E
:101C10001048FFF7FDFB0C210E48FFF7F9FB11E020
:101C2000C0060FD500210B48FFF740FC04210948EE
:101C3000FFF73CFC08210748FFF738FC0C2105485A
:101C4000FFF734FC012000F0F5FA77E700000020F0
:101C5000382C0140BC00002010B5502080F31188C2
:101C6000BFF34F8FBFF36F8F01F04EFE18B10449E1
:101C70004FF080500860002080F3118810BD0000F4
:101C800004ED00E030B58FB028216846FEF75FFB19
:101C900014210AA8FEF75BFB01210804CDE900101E
:101CA0000024029402250491CDE907504FF4E0107E
:101CB00009906846FEF78AFF08B172B6FEE70F206A
:101CC000CDE90A054FF48060CDE90C4002210AA855
:101CD0000E94FEF77FFE002801D072B6FEE70FB02B
:101CE00030BD70470148FFF73EBA0000F404002001
:101CF000F0B50268194B1A4C1A4D4FF080479842C4
:101D000005D0B84203D0A04201D0A84203D122F0AE
:101D100070064A683243984205D0B84203D0A042C8
:101D200001D0A84203D122F44074CA6822434C690E
:101D300022F08002224302608A68C2620A688262DC
:101D4000984201D109690163012141610169C90713
:101D500003D0016921F001010161F0BD002C0140B7
:101D6000000400400008004010B501F01F030121ED
:101D7000046A99408C430462016A9A4011430162EB
:101D800010BD10B5846842EA032224F47F440A435C
:101D90002243826010BD826822F070020A4342F042
:101DA000070181607047000030B5036A026A22F0C3
:101DB000010202624268846924F073050C682C43B6
:101DC00023F002058B682B430A4DA8420BD123F068
:101DD0000805CB6822F440722B434D6923F00403BD
:101DE00015438A692A4342608461496841630362FA
:101DF00030BD0000002C014030B5026A036A23F0B8
:101E000010030362436884690D6824F4E64444EADD
:101E100005248D6822F0200242EA05120B4DA842EB
:101E20000ED1CD6822F0800242EA05124D6923F4FA
:101E3000406343EA85038D6922F0400243EA85034B
:101E40004360846149688163026230BD002C0140B7
:101E500030B5036A026A22F4807202624268C46981
:101E600023F4007324F073050C682C438D6843EA57
:101E700005230C4DA8420ED1CD6823F4006343EA3C
:101E800005234D6922F4405242EA05128D6923F47C
:101E9000806342EA05124260C4614968C16303621B
:101EA00030BD0000002C014030B5046A026A22F403
:101EB000805202624268C3690D6823F4E64343EA34
:101EC00005238D6824F4005444EA0534064DA842E5
:101ED00004D14D6922F4804242EA85124260C36116
:101EE00049680164046230BD002C014010B5036AEA
:101EF000046A24F001040462846924F0F00444EAD2
:101F0000021423F00A020A438461026210BD10B574
:101F1000036A046A24F010040462846923F0A003B5
:101F200024F4704444EA023243EA011182610162FE
:101F300010BD10B5406A0021C185C184FFF7FAFACF
:101F400010BD01680C3151E8002F22F4907241E875
:101F50000023002BF5D10168143151E8002F22F045
:101F6000010241E80023002BF5D1016B012909D1C1
:101F700001680C3151E8002F22F0100241E80023E3
:101F8000002BF5D1202180F8421000210163704719
:101F900008B590F84210222901D0022008BD8268BD
:101FA0004FF480539A4201D1016921B1816A9A426A
:101FB0001BD04AB10AE00268816A5268C2F3080283
:101FC0000A80816A891C08E0026972B1026852685D
:101FD00002F07F020A70816A491C8162C18D491E2C
:101FE0000904090CC18503D01BE002685268F1E7BF
:101FF0000168CA6822F02002CA600168CA6822F437
:102000008072CA6001684A6922F001024A61202197
:1020100080F8421000214163026B012A03D0FFF7D0
:1020200041FC002008BD016301680C3151E8002F1C
:1020300022F0100241E80023002BF5D101680A6864
:10204000D20602D50A6849680091818DFFF771FABE
:10205000E7E7000070B5044600680169E26821F412
:102060004051114301612169A06808436169084337
:102070002168CA6841F20C639A430243CA6020682F
:102080004169A26921F44071114341611E492068F0
:10209000884202D1FEF764FD01E0FEF751FD00EB3E
:1020A000C00101EB0012606864218000B2FBF0F314
:1020B000B3FBF1F36FF018067343B2FBF0F5B2FB1C
:1020C000F0F605EB8305322303EB0515B5FBF1F5BF
:1020D000B6FBF1F605F0F00505EB0615B2FBF0F6E0
:1020E000B2FBF0F0B0FBF1F06FF01802504306EBDA
:1020F000800003EB0010B0FBF1F0216800F00F004E
:102100002844886070BD00000038014081628285EB
:10211000C28500214164222180F84210016921B169
:102120000168CA6842F48072CA6001684A6942F074
:1021300001024A610068C16841F02001C1600020CD
:10214000704700000148FFF7F7B9000004010020C4
:10215000FEE70907090E002804DB00F1E02080F803
:102160000014704700F00F0000F1E02080F8141D0B
:10217000704700009CB0FEF76BFBFFF783FDFFF795
:10218000B9FB264824490C2201604FF4E13141603B
:1021900000218160C160C0E904128161C161FFF763
:1021A00001FB08B172B6FEE7FFF706FC1B491422DB
:1021B0005C391A48FFF768FB1C2219496846FEF78C
:1021C00094F80021684600F041F8164C14491C228E
:1021D00060601C3107A8FEF788F8002107A800F00E
:1021E00035F80F49A0601C2238310EA8FEF77DF8A3
:1021F00000210EA800F02AF80949E0601C225431A1
:1022000015A8FEF772F8002115A800F01FF820614C
:1022100000F017F8FEE70000004400400401002031
:10222000EC3C00080000002001460020842900D07A
:10223000C81C704710B500B9012000F0CFFD002088
:1022400010BD10B500F092FE002010BD7FB50D4608
:1022500004464169B0F9080081B1A16971B1FFF785
:10226000E3FFD4E905128DE80700D4E900102B46FE
:10227000226901F00AFB039004B070BDFFF7D4FFA0
:1022800003A9CDE90001208A2B4682B2D4E90010CF
:1022900001F0CEFA012801D00020EDE70398EBE72A
:1022A0002DE9F041184C0F460546E6682068001DF0
:1022B00000F056FC38B9206890F82C1001208840B6
:1022C000216981432161681C07D137B12168BDE8CC
:1022D000F0410E48091D00F09DBC20683544B54210
:1022E0004560216805D2A06BBDE8F041091D00F0F2
:1022F00079BC606B091D00F075FCA06A854200D2B4
:10230000A562BDE8F08100002C00002058060020E6
:102310002DE9F041054600F089FC2E4CA068401CD8
:10232000A06020682C4F10B1606940B32DE025609B
:10233000A068012829D1002606EB860007EB800063
:1023400000F042FC761C072EF6D323488C3000F0B8
:102350003BFC2148A03000F037FC1F48B43000F0AF
:1023600033FC1D48C83000F02FFC1B48DC3000F067
:102370002BFC19488C3060631430A06305E02068A2
:10238000E96AC06A884200D82560606A401C6062C1
:10239000E96A0120226988401043206101EB810035
:1023A00007EB8000291D00F035FC00F05FFC606940
:1023B00000280CD02068E96AC06A884207D2074921
:1023C0004FF080500860BFF34F8FBFF36F8FBDE8B1
:1023D000F08100002C0000207C05002004ED00E0CE
:1023E00038B500F023FC104C2068C8B90F4800F045
:1023F000EBFB0E48143000F0E7FB0C48E0601430B3
:1024000020610A4B0020C03B009003F148020C21E0
:102410000A2000F0AFFF206010B105A100F0A8FC79
:10242000BDE8384000F022BC680000202C070020E6
:10243000546D72510000000030B4026C0B46002A4B
:102440000BD0C1681144C1608468A14201D3016806
:10245000C16030BC1846FDF703BF30BC70472DE9A2
:10246000F041856B174604460026026C82B1C7B165
:10247000E068FDF7F5FEE168206C091AE16022686A
:10248000914202D2A168081AE060022F16D017E02C
:102490002068A8B9A06801F09DFA06460020A06057
:1024A0000EE06068FDF7DCFE216C60680844606047
:1024B000A168884204D32068606001E005B16D1E08
:1024C0006D1CA5633046BDE8F08110B5044690F858
:1024D000510058B101280CD002280FD0502080F3B1
:1024E0001188BFF34F8FBFF36F8FFEE7206B00F0B3
:1024F000D1FB2046BDE8104000F0CCBB10BD000071
:1025000010484FF44061420706D0C01D0D4920F02D
:102510000700411AC1F540610B4A00230144C2E99A
:1025200000030839183A21F0070111604B600B6075
:102530000B1AC0E9001393604FF0004053605061E4
:10254000704700005407002094000020144E154CE2
:10255000A6F1C8074FF08058DFF84C9012E000BF9A
:1025600000F064FBF068C568281D00F0F9FAA06867
:10257000401EA0606068401E606000F077FB284647
:10258000FFF7A3FF60680028EAD138680128F9D96D
:10259000C9F80080BFF34F8FBFF36F8FF2E70000E1
:1025A000440600202C00002004ED00E003460098C3
:1025B00029B10260C0E90F31012100F00FBF0060B6
:1025C000F8E72DE9F0479A46DDE9098481466FF086
:1025D0000303206B03EB82021044089E20F00707E0
:1025E000780707D0502080F31188BFF34F8FBFF3D7
:1025F0006F8FFEE7002561B1002023180A5C83F885
:1026000034200A5C12B1401C1028F6D384F84350E1
:1026100001E084F83450072E00D30626E662C4E9B0
:102620001165201D00F0DBFA04F1180000F0D7FA64
:102630002461C6F107006462A061E56484F850502B
:1026400052464946384600F079FA2060B8F1000F4A
:1026500001D0C8F80040BDE8F087000030B511494E
:1026600000E011460A688242FBD34B685C18844242
:1026700003D1406818444860084643681C189442D7
:1026800009D1084C183C2468A24209D052681A4467
:1026900042600A6812680260814200D0086030BD62
:1026A0000460F9E79400002070B5002441600B4DF0
:1026B0000061914206D8D11A8269914206D2011D69
:1026C000286907E09A4203D2994201D3012403E02A
:1026D000011DE86800F086FA204670BD6800002001
:1026E00010B5044600F0A2FAA06B28B15FF0000418
:1026F00000F0BCFA204610BD0124F9E730B587B0E0
:10270000394D67E00498002864DB069C606910B1CD
:10271000201D00F025FA03A800F0D8F8024604981E
:102720000A2857D2DFE800F00505052D334A0505D4
:102730002D3394F8240040F0010084F8240005991A
:10274000A069059B01442046FFF7AEFF68B3216AEC
:102750002046884794F8240040073BD5002000908D
:102760000598A169002342181946204601F08EFA07
:10277000D8B9502080F31188BFF34F8FBFF36F8F0C
:10278000FEE714F8240F20F00100207022E094F8F6
:10279000240040F0010084F824000598A06128B1CD
:1027A000811813462046FFF77FFF13E0502080F387
:1027B0001188BFF34F8FBFF36F8FFEE794F82400AB
:1027C000810703D4204600F065FA03E020F0010001
:1027D00084F82400002204A9286800F053FF002890
:1027E00090D107B030BD0000680000202DE9FC4109
:1027F0000F46054600F05CFC01A800F067F80446AF
:10280000019818B101F06CF9BDE8FC81254EAFB11B
:1028100030690068D0B30027291B3A46306800F0C1
:10282000BBFA01F05DF90028EED11F494FF080504E
:102830000860BFF34F8FBFF36F8FE5E7A542EBD87A
:1028400001F04EF9F0682746C068C468201D00F00A
:1028500087F994F82400410719D5A0692B4641193E
:102860003A462046FFF720FFA8B100200346014664
:1028700000902A46204601F009FA60B9502080F302
:102880001188BFF34F8FBFF36F8FFEE707E020F093
:10289000010084F82400216A20468847B4E7012714
:1028A000BAE700006800002004ED00E00648416B34
:1028B000096829B1416BC968C96849688162704774
:1028C0004FF0FF31FAE700002C00002070B50546FC
:1028D00001F014F8064E0446B068844203D200F0BA
:1028E00009F8012000E0002028602046B46070BD97
:1028F00068000020F8B5194D20E0C068C46806687B
:10290000201D00F02DF9216A2046884794F8240004
:10291000400713D5A0693044B04206D924616060F5
:10292000211DE86800F05EF908E00020034601463A
:1029300000903246204601F0A9F938B1E8680168F4
:102940000029DAD12969C5E90310F8BD502080F3C8
:102950001188BFF34F8FBFF36F8FFEE76800002031
:1029600008484068401C4FF0500080F3118804D0A4
:10297000BFF34F8FBFF36F8FFEE7BFF34F8FBFF3F0
:102980006F8FFEE79C000020002150B10A4B426986
:102990009A420FD1806AA3F1280290420AD040B136
:1029A00008E0502080F31188BFF34F8FBFF36F8F83
:1029B000FEE7012108467047580600200346002024
:1029C00012B1994302D070470B42FCD001207047EE
:1029D000074CE068016841B1C0680021D0F80000F0
:1029E000FFF704FFFFF78AFEF3E701210020F7E776
:1029F000680000202DE9F041044600F017F994F931
:102A0000455004F1240609E0606A48B1304601F0FF
:102A10002DF808B100F010FA6D1E6DB2002DF3DC38
:102A20004FF0FF3684F8456000F020F900F0FEF822
:102A300094F9445004F1100709E0206948B1384680
:102A400001F014F808B100F0F7F96D1E6DB2002D19
:102A5000F3DC84F84460BDE8F04100F007B9000001
:102A60002DE9F0410546002700F022FB324E306888
:102A700008B9FFF745FD706905424ED1C5B3083569
:102A800068070ED005F00700C0F10800054468078C
:102A900007D0502080F31188BFF34F8FBFF36F8FA3
:102AA000FEE72DB37068854237D8234818300146B9
:102AB0000C6801E020460C466168A94202D22168F8
:102AC0000029F7D131688C4227D00768216801605E
:102AD00060680837411B10290FD96019420708D0D8
:102AE000502080F31188BFF34F8FBFF36F8FFEE745
:102AF00013E041606560FFF7B1FD61687068401ADE
:102B00007060B268904200D2B060706901430020EA
:102B1000C4E90001F068401CF06000F0E1FF7807B4
:102B200007D0502080F31188BFF34F8FBFF36F8F12
:102B3000FEE73846BDE8F0817C00002010B5031F99
:102B40004FF080741C601B1F21F001011960191FD8
:102B5000024B0B60143940380A6010BD612900082F
:102B6000D0E9013201699A60D0E901235A604A68CC
:102B7000824201D182684A60002202610868401ED8
:102B80000860086870470000044908680A6880699E
:102B9000D26A0968C2F107028A6170472C000020DE
:102BA000034B036003F1540008604020106070473D
:102BB0004C010020034B036003F1540008608020A7
:102BC00010607047A002002000F108014FF0FF32B2
:102BD000C0E90112C160016100210160704700215C
:102BE0000161704730B50B685A1C02D000F1080231
:102BF00002E0026904E02246546825689D42FAD941
:102C000053684B6099608A60516008610168491C93
:102C1000016030BD42684A6093688B609368596078
:102C2000916008610168491C01607047502080F381
:102C30001188BFF34F8FBFF36F8F0A494868401C5C
:102C4000486001280CD10848006810F0FF0F07D039
:102C5000502080F31188BFF34F8FBFF36F8FFEE7D3
:102C6000704700009C00002004ED00E0084948681F
:102C700028B1401E486001D180F311887047502070
:102C800080F31188BFF34F8FBFF36F8FFEE7000013
:102C90009C00002070B500282AD0164DA0F1080431
:102CA00060686969084207D1502080F31188BFF33A
:102CB0004F8FBFF36F8FFEE722683AB1502080F349
:102CC0001188BFF34F8FBFF36F8FFEE788436060BB
:102CD00000F0EEF960686968084468602046FFF714
:102CE000BDFC2869401C2861BDE8704000F0F8BEBA
:102CF00070BD00007C0000204FF0E0200021016149
:102D0000816105494FF47A720968B1FBF2F1491EFD
:102D100041610721016170472800002010B5FDF7CF
:102D20007BFA114910280ED300F1E02090F8F0034F
:102D30000A78904207D2502080F31188BFF34F8F5A
:102D4000BFF36F8FFEE709480068896800F4E06010
:102D5000884207D9502080F31188BFF34F8FBFF30B
:102D60006F8FFEE710BD00009C0000200CED00E01E
:102D700010B5084B002200BF53F832401CB1521C62
:102D8000082AF9D310BD43F8321003EBC2014860A2
:102D900010BD00003C05002070B515460E460446E7
:102DA000FFF744FF94F944100020491C01D184F836
:102DB000440094F94510491C01D184F84500FFF7FF
:102DC00055FFA06B28B92A46314604F1240000F0D3
:102DD00051F82046BDE87040FFF70CBE10B5020068
:102DE00014D00F48006B38B1502080F31188BFF326
:102DF0004F8FBFF36F8FFEE700F05AF900211046A6
:102E0000FFF74EFA00F06CFE002807D105494FF09D
:102E100080500860BFF34F8FBFF36F8F10BD00006D
:102E20002C00002004ED00E002490A6A0260C96833
:102E3000416070472C00002001490120C8617047A3
:102E40002C00002010B50C4650B109490968183112
:102E5000FFF7C8FE2046BDE810400121FFF720BA69
:102E6000502080F31188BFF34F8FBFF36F8FFEE7C1
:102E70002C00002070B514460D4668B10A49096857
:102E80001831FFF7C7FE0CB14FF0FF352146284639
:102E9000BDE87040FFF704BA502080F31188BFF3FB
:102EA0004F8FBFF36F8FFEE72C00002010B5144644
:102EB000030011D01048026BB2B1026841F000412A
:102EC0009161016818461831FFF7A4FE2046BDE85D
:102ED00010400121FFF7E4B9502080F31188BFF3BF
:102EE0004F8FBFF36F8FFEE7502080F31188BFF341
:102EF0004F8FBFF36F8FFEE72C00002070B5194E87
:102F0000326BFAB141F000410160C46814B3FFF7BD
:102F100027FE201DFFF724FEE16A0125326905FA2C
:102F200001F01043306101EB81000F4901EB80009B
:102F3000211DFFF76FFEE06A3168C96A884200D937
:102F4000F56170BD502080F31188BFF34F8FBFF340
:102F50006F8FFEE7502080F31188BFF34F8FBFF3D0
:102F60006F8FFEE72C0000207C05002030B587B075
:102F70000024039405AA04A903A80494FFF710FEF3
:102F8000DDE903010094CDE90110002315A11748E4
:102F9000059A00F07AFC164D0028E8621FD000F078
:102FA00045FE012809D0401C19D1502080F311881A
:102FB000BFF34F8FBFF36F8FFEE7502080F3118870
:102FC000BFF34F8FBFF36F8F4FF0FF30A862012028
:102FD0006861EC6007B0BDE8304000F077B907B039
:102FE00030BD000049444C45000000004D2500085C
:102FF0002C00002070B50446FFF718FE294D04B9D7
:103000002C68201DFFF7ACFD58B9E06A264A00EB9A
:10301000800152F8211021B901218140286988439B
:103020002861A06A18B104F11800FFF799FD1E4845
:10303000211DDC30FFF7EEFD94F85000002601283A
:1030400001D184F85060FFF711FE686928B1FFF7DD
:10305000EDFDFFF72BFCFFF709FE2868844213D132
:10306000686990B1286B38B1502080F31188BFF3A4
:103070004F8FBFF36F8FFEE70C494FF08050086011
:10308000BFF34F8FBFF36F8F70BD0748DC30006810
:10309000A968884201D12E6070BDBDE8704000F083
:1030A0000FB800002C0000207C05002004ED00E09B
:1030B0000248016B491C0163704700002C0000208E
:1030C0001448016B11B10121C16170470021C16138
:1030D0000169B1FA81F1C1F11F0101EB81020E49D1
:1030E00051F822306BB101EB820101F108034A680B
:1030F00052684A609A4201D152684A60D1680160C0
:103100007047502080F31188BFF34F8FBFF36F8F4C
:10311000FEE700002C0000207C05002070B51C207C
:10312000FFF79EFC040005D00025201D2560FFF759
:103130004BFD2576204670BD2DE9F04100278846DD
:1031400004000AD05FEA18600FD0502080F3118885
:10315000BFF34F8FBFF36F8FFEE7502080F31188CE
:10316000BFF34F8FBFF36F8FFEE7261D04F10C05F1
:10317000FFF79EFF2168F06841EA0801216017E02F
:10318000D0E9001601F07F425301236821F07F410E
:1031900002D40B4203D10AE031EA030307D1D20182
:1031A00000D50F43216841F00071FFF7A7FE3046BC
:1031B000A842E5D12068B843206000F091FC206867
:1031C000BDE8F0812DE9F0479A46DDF82090904661
:1031D0000D4604004FF0000709D0280E0FD05020F4
:1031E00080F31188BFF34F8FBFF36F8FFEE750203E
:1031F00080F31188BFF34F8FBFF36F8FFEE71DB1D0
:1032000000F06EFB40B112E0502080F31188BFF354
:103210004F8FBFF36F8FFEE7B9F1000F07D050203B
:1032200080F31188BFF34F8FBFF36F8FFEE7FFF777
:103230003FFF2668524629463046FFF7BFFB30B1B4
:10324000B8F1000F1AD02068A843206016E0B9F149
:10325000000F13D0B8F1000F01D04FF08077BAF112
:10326000000F01D047F0806745EA07014A46201D5C
:10327000FFF71CFE00F034FC18B10AE000F030FC4F
:103280001FE011494FF080500860BFF34F8FBFF32C
:103290006F8FFFF779FC0646800110D4FFF7C6FC5C
:1032A0002668524629463046FFF788FB28B1B8F118
:1032B000000F02D02068A8432060FFF7D7FC26F05B
:1032C0007F463046BDE8F08704ED00E01CB5264996
:1032D00008780190FF20087008788DF800009DF8AC
:1032E00000009DF8002000F0F000904207D0502030
:1032F00080F31188BFF34F8FBFF36F8FFEE79DF808
:1033000000001A4C00F0500020700720A06005E07B
:103310009DF8002052008DF80020401E9DF80020EE
:103320001206F5D4A060032807D0502080F311883E
:10333000BFF34F8FBFF36F8FFEE74FF44070A06075
:10334000019808700A48016841F470010160016841
:1033500041F070410160FFF7CFFC00206060FCF796
:1033600025FF00201CBD000000E400E09C000020C0
:1033700020ED00E038B5049D18B153B1CAB181B158
:1033800020E0502080F31188BFF34F8FBFF36F8F81
:10339000FEE7502080F31188BFF34F8FBFF36F8F8C
:1033A000FEE7502080F31188BFF34F8FBFF36F8F7C
:1033B000FEE739B1502080F31188BFF34F8FBFF380
:1033C0006F8FFEE748241C46012384F846302B46C5
:1033D0000094FFF7EBF8204638BD000070B50D46AD
:1033E000040025D0FFF722FCD4E90F20216802FB5E
:1033F0000011A1600021A163216861600A46D4E93F
:103400000F01401E00FB0121E16021464FF0FF301B
:1034100001F8440F487004F110008DB1FFF7D4FBA0
:1034200004F12400FFF7D0FBFFF720FC012070BD62
:10343000502080F31188BFF34F8FBFF36F8FFEE7EB
:1034400021690029F0D000F011FB0028ECD00449DC
:103450004FF080500860BFF34F8FBFF36F8FE3E7EB
:1034600004ED00E02DE9FF4782B01D468A464FF08B
:103470000008040003D0BAF1000F08D011E050207A
:1034800080F31188BFF34F8FBFF36F8FFEE7206C7F
:1034900038B1502080F31188BFF34F8FBFF36F8F87
:1034A000FEE7022D0AD1E06B012807D0502080F3FF
:1034B0001188BFF34F8FBFF36F8FFEE700F010FA54
:1034C0003F4F4FF000094FF0805648B9049838B18B
:1034D000502080F31188BFF34F8FBFF36F8FFEE74B
:1034E000FFF7A4FBA06BE16B884207D3022D05D048
:1034F0000498D0B1B8F1000F1AD01EE02A46514608
:103500002046FEF7ACFF616A19B104F1240000F017
:10351000ADFA20B13E60BFF34F8FBFF36F8FFFF75F
:10352000A5FB012006B0BDE8F087FFF79FFB22E076
:103530006846FFF779FC4FF00108FFF797FBFFF7AC
:10354000B7FDFFF773FB94F94400401C01D184F8E8
:10355000449094F94500401C01D184F84590FFF750
:1035600085FB04A9684600F029F930B12046FFF731
:1035700041FA00F0B5FA0020D4E7FFF757FBA06B43
:10358000E16B884213D1FFF771FB04F1100004993D
:10359000FFF758FC2046FFF72DFA00F0A1FA0028AB
:1035A0009ED13E60BFF34F8FBFF36F8F98E7FFF759
:1035B0005DFB2046FFF71EFA00F092FA90E700004C
:1035C00004ED00E02DE9F0471F46904689460400CF
:1035D00003D0B9F1000F08D011E0502080F311881A
:1035E000BFF34F8FBFF36F8FFEE7206C38B15020D1
:1035F00080F31188BFF34F8FBFF36F8FFEE7022F69
:103600000AD1E06B012807D0502080F31188BFF366
:103610004F8FBFF36F8FFEE7FFF780FB5020EFF374
:10362000118680F31188BFF34F8FBFF36F8FA06BAC
:10363000E16B884206D3022F04D0002086F3118864
:10364000BDE8F08794F94550A06B3A4649462046BC
:10365000FEF705FF681C04D06D1C84F8455001205E
:10366000ECE7606A0028FAD004F1240000F0FEF9CB
:103670000028F4D0B8F1000FF1D00121C8F80010F3
:10368000EDE700002DE9F747002683B08A460400E5
:1036900003D0BAF1000F08D011E0502080F3118858
:1036A000BFF34F8FBFF36F8FFEE7206C38B1502010
:1036B00080F31188BFF34F8FBFF36F8FFEE700F0E9
:1036C0000FF9DFF8F4804FF000094FF0805748B948
:1036D000059838B1502080F31188BFF34F8FBFF3A6
:1036E0006F8FFEE7FFF7A2FAA56BC5B151462046E2
:1036F000FEF7A2FE6D1EA563206950B104F1100013
:1037000000F0B4F928B1C8F80070BFF34F8FBFF3D1
:103710006F8FFFF7ABFA012006B0BDE8F087059880
:1037200008B11EB106E0FFF7A1FA27E06846FFF7EF
:103730007BFB0126FFF79AFAFFF7BAFCFFF776FA50
:1037400094F94400401C01D184F8449094F9450058
:10375000401C01D184F84590FFF788FA05A9684616
:1037600000F02CF8002820460AD0FFF743F900F0BB
:10377000B7F92046FEF7B4FF0028B3D00020CBE70E
:10378000FEF7AEFF90B104F124000599FFF75AFB54
:103790002046FFF72FF900F0A3F90028A2D1C8F8BE
:1037A0000070BFF34F8FBFF36F8F9BE72046FFF78B
:1037B00021F900F095F995E704ED00E02DE9F041DD
:1037C0000C46050011D0C4B1FFF730FA174BDA6888
:1037D0006E682068911B471C17D02F681B6A9F4298
:1037E00019D0964217D8012410E0502080F3118898
:1037F000BFF34F8FBFF36F8FFEE7502080F3118828
:10380000BFF34F8FBFF36F8FFEE70024FFF72EFA51
:103810002046BDE8F081884205D9401A206028463C
:10382000FFF702FBF1E700202060DCE72C0000201E
:103830002DE9FF5F8346DDE90E87994616468A46E5
:103840009000FFF70DF905001CD05420FFF708F990
:10385000040014D00020256384F85100CDE9024013
:10386000CDE900874B46324651465846FEF7A9FE41
:103870002046FEF74DFD012004B0BDE8F09F28462C
:10388000FFF708FA4FF0FF30F6E7F0B585B0DDE955
:103890000B640A9DA6B1DCB154270097266302266B
:1038A00084F85160002604AFCDE90246CDE9005707
:1038B000FEF787FE2046FEF72BFD049805B0F0BD0D
:1038C000502080F31188BFF34F8FBFF36F8FFEE757
:1038D000502080F31188BFF34F8FBFF36F8FFEE747
:1038E0000548416919B1006B18B1002070470120EB
:1038F00070470220704700002C0000200148C0687B
:10390000704700002C0000202DE9F0412F4C0026CC
:10391000206B28B1A069401CA0613046BDE8F08151
:10392000E5686D1CE56013D1606B006838B150200C
:1039300080F31188BFF34F8FBFF36F8FFEE7606B8B
:10394000A16B6163A063206A401C2062FEF7AEFF9A
:10395000A06ADFF87C80854209D3606B0068A0B163
:10396000606BC068C7687868854211D2A062206821
:10397000C06A00EB800158F82100012800D9012617
:10398000E0690028C9D00126C7E74FF0FF30EDE716
:10399000381DFFF7E5F8B86A18B107F11800FFF70E
:1039A000DFF8F96A0120226988401043206101EBA9
:1039B000810108EB8100391DFFF72CF9F86A2168B5
:1039C000C96A8842C9D30126C7E700002C0000203D
:1039D0007C05002070B504004FF0000140D0214D5F
:1039E0002868844207D0502080F31188BFF34F8F9E
:1039F000BFF36F8FFEE7A06C38B1401EA064636C0C
:103A0000E26A9A422CD040B12AE0502080F311881B
:103A1000BFF34F8FBFF36F8FFEE7201DFFF7A0F8B6
:103A2000114A012150B9E06A00EB800352F82330BB
:103A300023B92B6901FA00F083432B61606CE062CB
:103A4000C0F10700A061E06A2B6981401943296138
:103A500000EB800002EB8000211DFFF7DBF8012165
:103A6000084670BD2C0000207C0500202DE9F041A7
:103A7000C068C468ACB104F118000746FFF770F8DD
:103A8000154D286B0126A0B139461448FFF7C2F83E
:103A9000E06A2968C96A88421CD90120EE61BDE844
:103AA000F081502080F31188BFF34F8FBFF36F8FE9
:103AB000FEE7201DFFF754F8E16A2A6906FA01F0D3
:103AC0001043286101EB81000449B43901EB800007
:103AD000211DDBE70020E2E72C000020300600205B
:103AE0002DE9F0472C4D00242746286B38B1FFF70D
:103AF0009DF8286B401E2863286B40B146E050209B
:103B000080F31188BFF34F8FBFF36F8FFEE7A96873
:103B1000224E0120D1B3A6F1B40980463068E8B145
:103B2000F068C46804F11800FFF71AF8201DFFF7C9
:103B300017F8E06A2A6908FA00F11143296100EBDD
:103B4000800109EB8100211DFFF764F8E06A296814
:103B5000C96A8842E2D3C5F81C80DFE70CB1FEF7E2
:103B6000A5FEAC6944B14646FFF7CEFE00B1EE615A
:103B7000641EF9D10020A861E86938B1084901271D
:103B800038070860BFF34F8FBFF36F8FFFF76EF8F2
:103B90003846BDE8F08700002C00002030060020E9
:103BA00004ED00E02DE9F0410027040015D0FFF7F7
:103BB000B5F85020EFF3118580F31188BFF34F8FD4
:103BC000BFF36F8F2046FEF7DFFE30B3154E306B2C
:103BD00058B104F1180114481DE0502080F31188F9
:103BE000BFF34F8FBFF36F8FFEE7E06A3168C96A9A
:103BF000884200D30127201DFEF7B2FFE16A0120B1
:103C0000326988401043306101EB81000649B439C4
:103C100001EB8000211DFEF7FDFF85F3118838467A
:103C2000BDE8F0812C0000203006002010B586B0E1
:103C3000FEF7D6FB114C2068B8B100200390049029
:103C400005AA04A903A8FEF7B5FFDDE903210220B8
:103C50008DE8070000230AA10B48059AFFF715FE1F
:103C6000606010B106B0012010BD502080F31188B3
:103C7000BFF34F8FBFF36F8FFEE700006800002097
:103C8000546D722053766300D1290008FEB51E469C
:103C900013460200089D4FF0000014D0124C276814
:103CA000002F0FD0CDE900130292062915DAFFF795
:103CB00017FE02284FF000030DD00022694620684D
:103CC000FFF7D0FBFEBD502080F31188BFF34F8F6C
:103CD000BFF36F8FFEE72A46F0E7002332466946BE
:103CE0003846FFF76FFCFEBD68000020AC3D0008C1
:103CF0001D1B000802000000000000008000000002
:103D00000000000000000000943D0008E91A0008CF
:103D1000FEFF000000000000400000000000000066
:103D200000000000A03D0008B51A0008FFFF0000D9
:103D30000000000040000000000000000000000043
:103D4000883D0008D90400080300000000000000BE
:103D500080000000000000000000000001020203DB
:103D60000405060708090A0B0C0D0E0F10100000C1
:103D7000000000000000010203040607080900001B
:103D800000000102030400004765745F4461746130
:103D9000000000006D795461736B5F4C6564000036
:103DA0006D795461736B5F486F726E005461736B11
:103DB0005F6472697665725F6D6F7400DC3D000848
:103DC00000000020A800000028010008843E000830
:103DD000A80000201019000044010008A8000020DD
:103DE00000000000000000000000000000000000D3
:103DF00000000000000000000100000010000000B2
:103E00000000000000127A00000000000000000026
:103E100000000000000000000000000000000000A2
:103E20000000000000000000000000000000000092
:103E30000000000000000000000000000000000082
:103E40000000000000000000000000000000000072
:103E50000000000000000000000000000000000062
:103E60000000000000000000000000000000000052
:103E7000000000000000000000000000AAAAAAAA9A
:043E8000000000003E
:04000005080000ED02
:00000001FF
